{
  "_format": "hh-sol-artifact-1",
  "contractName": "Paribu_FinalCase",
  "sourceName": "contracts/Paribu-Finalcase.sol",
  "abi": [
    {
      "inputs": [],
      "stateMutability": "nonpayable",
      "type": "constructor"
    },
    {
      "inputs": [
        {
          "internalType": "contract IERC20",
          "name": "_token",
          "type": "address"
        },
        {
          "internalType": "string",
          "name": "_description",
          "type": "string"
        },
        {
          "internalType": "string[]",
          "name": "_options",
          "type": "string[]"
        }
      ],
      "name": "createProposal",
      "outputs": [],
      "stateMutability": "nonpayable",
      "type": "function"
    },
    {
      "inputs": [
        {
          "internalType": "contract IERC20",
          "name": "_token",
          "type": "address"
        }
      ],
      "name": "getAllProposals",
      "outputs": [
        {
          "components": [
            {
              "internalType": "uint256",
              "name": "id",
              "type": "uint256"
            },
            {
              "internalType": "string",
              "name": "description",
              "type": "string"
            },
            {
              "internalType": "string[]",
              "name": "options",
              "type": "string[]"
            }
          ],
          "internalType": "struct Paribu_FinalCase.IProposal[]",
          "name": "",
          "type": "tuple[]"
        }
      ],
      "stateMutability": "view",
      "type": "function"
    }
  ],
  "bytecode": "0x60a06040526000805534801561001457600080fd5b5033606081901b608052610895610033600039600050506108956000f3fe608060405234801561001057600080fd5b50600436106100365760003560e01c80631876cde91461003b5780639853d92214610050575b600080fd5b61004e6100493660046104e5565b610079565b005b61006361005e3660046104c3565b610171565b604051610070919061060e565b60405180910390f35b60016000866001600160a01b03166001600160a01b031681526020019081526020016000206040518060600160405280600054815260200186868080601f0160208091040260200160405190810160405280939291908181526020018383808284376000920191909152505050908252506020016100f78486610733565b905281546001818101845560009384526020938490208351600390930201918255838301518051939492936101349392850192919091019061035b565b50604082015180516101509160028401916020909101906103df565b5050506001600080828254610165919061070d565b90915550505050505050565b6001600160a01b0381166000908152600160209081526040808320805482518185028101850190935280835260609492939192909184015b828210156103505783829060005260206000209060030201604051806060016040529081600082015481526020016001820180546101e69061080e565b80601f01602080910402602001604051908101604052809291908181526020018280546102129061080e565b801561025f5780601f106102345761010080835404028352916020019161025f565b820191906000526020600020905b81548152906001019060200180831161024257829003601f168201915b5050505050815260200160028201805480602002602001604051908101604052809291908181526020016000905b828210156103395783829060005260206000200180546102ac9061080e565b80601f01602080910402602001604051908101604052809291908181526020018280546102d89061080e565b80156103255780601f106102fa57610100808354040283529160200191610325565b820191906000526020600020905b81548152906001019060200180831161030857829003601f168201915b50505050508152602001906001019061028d565b5050505081525050815260200190600101906101a9565b505050509050919050565b8280546103679061080e565b90600052602060002090601f01602090048101928261038957600085556103cf565b82601f106103a257805160ff19168380011785556103cf565b828001600101855582156103cf579182015b828111156103cf5782518255916020019190600101906103b4565b506103db929150610438565b5090565b82805482825590600052602060002090810192821561042c579160200282015b8281111561042c578251805161041c91849160209091019061035b565b50916020019190600101906103ff565b506103db92915061044d565b5b808211156103db5760008155600101610439565b808211156103db576000610461828261046a565b5060010161044d565b5080546104769061080e565b6000825580601f10610486575050565b601f0160209004906000526020600020908101906104a49190610438565b50565b80356001600160a01b03811681146104be57600080fd5b919050565b6000602082840312156104d557600080fd5b6104de826104a7565b9392505050565b6000806000806000606086880312156104fd57600080fd5b610506866104a7565b9450602086013567ffffffffffffffff8082111561052357600080fd5b818801915088601f83011261053757600080fd5b81358181111561054657600080fd5b89602082850101111561055857600080fd5b60208301965080955050604088013591508082111561057657600080fd5b818801915088601f83011261058a57600080fd5b81358181111561059957600080fd5b8960208260051b85010111156105ae57600080fd5b9699959850939650602001949392505050565b6000815180845260005b818110156105e7576020818501810151868301820152016105cb565b818111156105f9576000602083870101525b50601f01601f19169290920160200192915050565b602080825282518282018190526000919060409081850190600581811b8701840188860187805b858110156106cc57603f198b850301875282516060815186528a820151818c880152610663828801826105c1565b928b0151878403888d01528051808552908d019392508c8301915080891b83018d01865b828110156106b557601f198583030184526106a38287516105c1565b958f0195938f01939150600101610687565b509a8d019a97505050938a01935050600101610635565b50919a9950505050505050505050565b604051601f8201601f1916810167ffffffffffffffff8111828210171561070557610705610849565b604052919050565b6000821982111561072e57634e487b7160e01b600052601160045260246000fd5b500190565b600067ffffffffffffffff8084111561074e5761074e610849565b8360051b602061075f8183016106dc565b868152818101908636858201111561077657600080fd5b600094505b888510156108025780358681111561079257600080fd5b8801601f36818301126107a457600080fd5b8135888111156107b6576107b6610849565b6107c7818301601f191688016106dc565b915080825236878285010111156107dd57600080fd5b808784018884013760009082018701528452506001949094019391830191830161077b565b50979650505050505050565b600181811c9082168061082257607f821691505b6020821081141561084357634e487b7160e01b600052602260045260246000fd5b50919050565b634e487b7160e01b600052604160045260246000fdfea26469706673582212206d00e1f7a1d9885a004d97e91523fe83a5cbf1495dff507ae294cf93ca76501964736f6c63430008070033",
  "linkReferences": {},
  "deployedLinkReferences": {}
}